:100000000C942A000C94F30C0C9447000C944700B9
:100010000C9447000C9447000C9447000C94470044
:100020000C9447000C9447000C940F080C94470064
:100030000C9447000C9447000C9447000C94470024
:100040000C942C1A0C9447000C9447000C94470015
:100050000C94470011241FBECFE5D8E0DEBFCDBF12
:1000600012E0A0E6B0E0ECE0F7E502C005900D92EA
:10007000A23FB107D9F712E0A2EFB2E001C01D9292
:10008000AE3FB107E1F70E945F1A0C94842B0C94E9
:100090000000EF92FF920F931F937B018C0120E0F1
:1000A00030E040E05FE40E94F50388238CF0C80153
:1000B000B70120E030E040E05FE40E94C1010E940F
:1000C00055049B01AC01205030404040504806C0D0
:1000D000C801B7010E9455049B01AC01B901CA01D6
:1000E0001F910F91FF90EF900895A0E0B0E0EBE733
:1000F000F0E00C94382BDC012B01FA019C9192303A
:1001000008F439C1EB018881823008F433C194309E
:1001100069F4843009F02FC111969C91119789815F
:10012000981709F428C1A0EDB1E025C1843009F485
:1001300021C18230A9F4923009F01DC19A01AD01AC
:1001400088E0EA010990AE01E90109929E0181501F
:10015000C1F7E201898111969C918923818308C1AD
:10016000923009F407C112962D903C901397EB0141
:100170008A819B811496AD90BD90CD90DC901797AD
:10018000EC80FD800E811F819101281B390BB90184
:1001900037FF04C066277727621B730B6032710537
:1001A0000CF061C0121613066CF537014801062EDB
:1001B00004C096948794779467940A94D2F721E0C8
:1001C00030E040E050E004C0220F331F441F551FB1
:1001D0006A95D2F721503040404050402E213F21B7
:1001E00040235123211531054105510521F021E01E
:1001F00030E040E050E079018A01E628F72808293C
:1002000019293CC0232BD1F1260E371E350146019A
:10021000062E04C096948794779467940A94D2F734
:1002200021E030E040E050E004C0220F331F441FC3
:10023000551F6A95D2F721503040404050402A2146
:100240003B214C215D21211531054105510521F04E
:1002500021E030E040E050E059016A01A628B728CB
:10026000C828D9280BC0821593052CF01C01AA249C
:10027000BB24650103C0EE24FF24870111969C91E5
:10028000D20111968C91981709F445C0992339F041
:10029000A80197012A193B094C095D0906C0A6016E
:1002A00095012E193F09400B510B57FD08C01182D3
:1002B0003382228224833583468357831DC081E0A5
:1002C00081833382228288279927DC01821B930B4A
:1002D000A40BB50B84839583A683B7830DC0220F2F
:1002E000331F441F551F24833583468357838281E0
:1002F000938101979383828324813581468157813D
:10030000DA01C9010197A109B1098F5F9F4FAF4F72
:10031000BF4328F30BC0918333822282EA0CFB1C7B
:100320000C1D1D1DE482F5820683178383E0808304
:10033000248135814681578157FF1AC0C901AA27F8
:1003400097FDA095BA2F81709070A070B0705695EF
:10035000479537952795822B932BA42BB52B848318
:100360009583A683B7838281938101969383828349
:10037000DF0101C0D201CD01CDB7DEB7E2E10C94BF
:10038000542BA0E2B0E0E7ECF1E00C94442B69833D
:100390007A838B839C832D833E834F835887E9E048
:1003A000EE2EF12CEC0EFD1ECE010196B7010E943F
:1003B00046068E010F5E1F4FCE010596B8010E94C2
:1003C00046068A8991E089278A8BC701B801AE0168
:1003D000475E5F4F0E9475000E947105A096E6E09F
:1003E0000C94602BA0E2B0E0E8EFF1E00C94442B19
:1003F00069837A838B839C832D833E834F835887C5
:10040000F9E0EF2EF12CEC0EFD1ECE010196B701A6
:100410000E9446068E010F5E1F4FCE010596B80161
:100420000E944606C701B801AE01475E5F4F0E94B9
:1004300075000E947105A096E6E00C94602BA0E286
:10044000B0E0E5E2F2E00C94382B69837A838B8389
:100450009C832D833E834F835887CE010196BE0136
:10046000675F7F4F0E944606CE010596BE016F5E14
:100470007F4F0E9446069985923088F089898230A4
:10048000C8F0943019F4823051F404C0843029F457
:10049000923081F480ED91E0C6C0923049F420E0C2
:1004A0009A858A89981321E02A87CE010996BBC0D4
:1004B000823049F420E09A858A89981321E02A8BBA
:1004C000CE014196B0C02D843E844F8458886D88FB
:1004D0007E888F88988CEE24FF248701AA24BB2471
:1004E000650140E050E060E070E0E0E0F0E0C10174
:1004F00081709070892BE9F0E60CF71C081D191D1E
:100500009A01AB012A0D3B1D4C1D5D1D80E090E062
:10051000A0E0B0E0E614F7040805190520F481E036
:1005200090E0A0E0B0E0BA01A901480F591F6A1F8E
:100530007B1FAA0CBB1CCC1CDD1C97FE08C081E0F5
:1005400090E0A0E0B0E0A82AB92ACA2ADB2A3196B6
:10055000E032F10549F0660C771C881C991C569412
:10056000479437942794C3CFFA85EA892B893C892D
:100570008B859C85280F391F2E5F3F4F17C0CA01FE
:1005800081709070892B61F016950795F794E79428
:1005900080E090E0A0E0B0E8E82AF92A0A2B1B2BC3
:1005A00076956795579547952F5F3F4F77FDE7CF36
:1005B0000CC0440F551F661F771F17FD4160EE0CDE
:1005C000FF1C001F111F21503040403090E05907A0
:1005D00090E0690790E4790760F32B8F3C8FDB0193
:1005E000CA018F779070A070B07080349105A1051A
:1005F000B10561F447FD0AC0E114F10401051105DC
:1006000029F0405C5F4F6F4F7F4F40781A8EFE1786
:1006100011F081E08A8F4D8F5E8F6F8F78A383E01A
:10062000898FCE0149960E947105A096E2E10C9453
:10063000542BA8E1B0E0EFE1F3E00C94402B698388
:100640007A838B839C832D833E834F835887B9E0C5
:10065000EB2EF12CEC0EFD1ECE010196B7010E948F
:1006600046068E010F5E1F4FCE010596B8010E940F
:1006700046062985223008F47EC03989323010F4CC
:10068000B8017CC08A859A8989278A87243011F02D
:10069000223031F4231709F06EC060ED71E06EC0B6
:1006A000343039F41D861E861F86188A1C861B86E8
:1006B00004C0323021F484E08987B7015FC02B8504
:1006C0003C858B899C89281B390B3C872B87ED84C3
:1006D000FE840F851889AD88BE88CF88D88CEA142F
:1006E000FB040C051D0540F4EE0CFF1C001F111F40
:1006F000215030403C872B8720E030E040E050E044
:1007000080E090E0A0E0B0E460E070E0EA14FB0478
:100710000C051D0540F0282B392B4A2B5B2BEA18C2
:10072000FB080C091D09B695A79597958795EE0CC2
:10073000FF1C001F111F6F5F7F4F6F31710531F775
:10074000DA01C9018F779070A070B0708034910584
:10075000A105B10561F427FD0AC0E114F10401050A
:10076000110529F0205C3F4F4F4F5F4F20782D87B8
:100770003E874F87588BBE01675F7F4FCB010E943A
:1007800071056896EAE00C945C2BA8E1B0E0EBEC14
:10079000F3E00C94442B69837A838B839C832D83B1
:1007A0003E834F83588789E0E82EF12CEC0EFD1E26
:1007B000CE010196B7010E9446068E010F5E1F4FC3
:1007C000CE010596B8010E9446068985823040F028
:1007D0008989823028F0C701B8010E94BE0601C095
:1007E0008FEF6896E6E00C94602BA8E1B0E0EBEFA9
:1007F000F3E00C94442B69837A838B839C832D8351
:100800003E834F83588789E0E82EF12CEC0EFD1EC5
:10081000CE010196B7010E9446068E010F5E1F4F62
:10082000CE010596B8010E9446068985823040F0C7
:100830008989823028F0C701B8010E94BE0601C034
:100840008FEF6896E6E00C94602BA8E1B0E0EBE255
:10085000F4E00C94442B69837A838B839C832D83EF
:100860003E834F83588789E0E82EF12CEC0EFD1E65
:10087000CE010196B7010E9446068E010F5E1F4F02
:10088000CE010596B8010E9446068985823040F067
:100890008989823028F0C701B8010E94BE0601C0D4
:1008A00081E06896E6E00C94602BACE0B0E0EBE50C
:1008B000F4E00C94482B69837A838B839C83CE016C
:1008C0000196BE016B5F7F4F0E9446068D8182308C
:1008D00061F1823050F1843021F48E81882351F10E
:1008E0002EC02F81388537FD20C06E812F31310514
:1008F0001CF06623F9F023C08EE190E0821B930B7D
:1009000029853A854B855C8504C056954795379572
:1009100027958A95D2F76623B1F05095409530958A
:1009200021953F4F4F4F5F4F0EC020E030E040E039
:1009300050E009C02FEF3FEF4FEF5FE704C020E02A
:1009400030E040E050E8B901CA012C96E2E00C9496
:10095000642BA8E0B0E0EFEAF4E00C94402B7B01BC
:100960008C01611571058105910519F482E0898377
:1009700060C083E089838EE1C82ED12CDC82CB82DB
:10098000ED82FE820F831887C801B7010E942205FD
:10099000FC013197F7FF3BC0222733272E1B3F0B6B
:1009A00057016801022E04C0D694C794B794A79447
:1009B0000A94D2F740E050E060E070E081E090E01F
:1009C000A0E0B0E004C0880F991FAA1FBB1F2A95A2
:1009D000D2F70197A109B1098E219F21A023B1234C
:1009E0000097A105B10521F041E050E060E070E022
:1009F0004A295B296C297D294D835E836F83788723
:100A00008EE190E08E1B9F0B9C838B8312C03097EE
:100A100081F00E2E04C0EE0CFF1C001F111F0A9463
:100A2000D2F7ED82FE820F831887CE1ADF0ADC82AE
:100A3000CB821A82CE0101960E9471052896EAE0C7
:100A40000C945C2BEF92FF920F931F937B018C0110
:100A500080E0E81680E0F80681E0080780E01807EB
:100A600088F48FEFE816F1040105110531F028F044
:100A700088E090E0A0E0B0E017C080E090E0A0E067
:100A8000B0E012C080E0E81680E0F80680E00807D9
:100A900081E0180728F088E190E0A0E0B0E004C011
:100AA00080E190E0A0E0B0E020E230E040E050E003
:100AB000281B390B4A0B5B0B04C016950795F7945E
:100AC000E7948A95D2F7F701E852FE4F8081281B00
:100AD000310941095109C9011F910F91FF90EF9010
:100AE0000895DF92EF92FF920F931F93FC01E48031
:100AF000F58006811781D1808081823048F480E0C2
:100B000090E0A0E1B0E0E82AF92A0A2B1B2BA5C04F
:100B1000843009F49FC0823021F4EE24FF24870141
:100B200005C0E114F1040105110519F4E0E0F0E05D
:100B300096C0628173819FEF623879070CF05BC0C9
:100B400022E83FEF261B370B2A3131052CF020E03D
:100B500030E040E050E02AC0B801A701022E04C0F6
:100B600076956795579547950A94D2F781E090E07E
:100B7000A0E0B0E004C0880F991FAA1FBB1F2A95F0
:100B8000D2F70197A109B1098E219F21A023B1239A
:100B90000097A105B10521F081E090E0A0E0B0E070
:100BA0009A01AB01282B392B4A2B5B2BDA01C901A7
:100BB0008F779070A070B07080349105A105B10559
:100BC00039F427FF09C0205C3F4F4F4F5F4F04C0EF
:100BD000215C3F4F4F4F5F4FE0E0F0E02030A0E05E
:100BE0003A07A0E04A07A0E45A0710F0E1E0F0E07D
:100BF00079018A0127C06038710564F5FB01E1586D
:100C0000FF4FD801C7018F779070A070B07080340B
:100C10009105A105B10539F4E7FE0DC080E490E02F
:100C2000A0E0B0E004C08FE390E0A0E0B0E0E80E08
:100C3000F91E0A1F1B1F17FF05C016950795F7948D
:100C4000E794319687E016950795F794E7948A958F
:100C5000D1F705C0EE24FF248701EFEFF0E06E2FFF
:100C6000679566276795902F9F77D794DD24D79453
:100C70008E2F8695492F462B582F5D29B701CA0123
:100C80001F910F91FF90EF90DF900895FC01DB0121
:100C9000408151812281622F6F7770E0221F2227CD
:100CA000221F9381892F880F822B282F30E0991FD4
:100CB0009927991F11969C93119721153105A9F534
:100CC000411551056105710511F482E037C082E8D4
:100CD0009FEF13969C938E9312979A01AB0167E056
:100CE000220F331F441F551F6A95D1F783E08C9361
:100CF0000DC0220F331F441F551F12968D919C91DA
:100D00001397019713969C938E931297203080E04F
:100D1000380780E0480780E4580758F314962D936D
:100D20003D934D935C93179708952F3F310579F4C8
:100D3000411551056105710519F484E08C930895FE
:100D400064FF03C081E08C9312C01C9210C02F5727
:100D5000304013963C932E93129783E08C9387E058
:100D6000440F551F661F771F8A95D1F7706414963C
:100D70004D935D936D937C93179708951F93DC01BA
:100D8000FB019C91923008F447C08081823008F4C6
:100D900043C0943051F411961C91843099F58181AF
:100DA000682F70E0611B71093FC0843021F09230E0
:100DB00031F48230B9F18181882389F12DC01196F7
:100DC0001C9111978230F1F081811817D9F4129695
:100DD0002D913C911397828193818217930794F010
:100DE00028173907BCF014968D919D910D90BC91F8
:100DF000A02D2481358146815781281739074A075C
:100E00005B0718F4112341F00AC082179307A40767
:100E1000B50740F4112319F061E070E005C06FEFF1
:100E20007FEF02C060E070E0CB011F910895DF9377
:100E3000CF93CDB7DEB7E0E4F0E086E88083E9E267
:100E4000F0E083E38083AAE2B0E0EAE2F0E08081B0
:100E500088608C93AAE2B0E0EAE2F0E080818061F1
:100E60008C93CF91DF910895DF93CF930F92CDB7FD
:100E7000DEB78983EBE2F0E08081882F90E080721A
:100E800090700097B9F3ECE2F0E0898180830F90D5
:100E9000CF91DF910895DF93CF93CDB7DEB7EBE22B
:100EA000F0E080818823DCF7ECE2F0E08081CF91F4
:100EB000DF910895DF93CF93CDB7DEB7A3E5B0E020
:100EC000E3E5F0E0808188608C93A3E5B0E0E3E5A2
:100ED000F0E080818F7B8C93A9E5B0E0E9E5F0E05C
:100EE000808182608C93ECE5F0E08AEF8083A3E55B
:100EF000B0E0E3E5F0E0808181608C93A3E5B0E0B1
:100F0000E3E5F0E080818D7F8C93A3E5B0E0E3E53D
:100F1000F0E0808184608C93CF91DF910895DF931E
:100F2000CF9300D00F92CDB7DEB79B838A8381E049
:100F300089838A819B81009739F08A819B81909374
:100F4000F3028093F20201C0198289810F900F9001
:100F50000F90CF91DF910895DF93CF9300D0CDB75D
:100F6000DEB79A838983EAE4F0E089819A819183EC
:100F700080830F900F90CF91DF910895DF93CF93EF
:100F800000D0CDB7DEB79A838983E6E4F0E08981AB
:100F90009A81918380830F900F90CF91DF91089574
:100FA000DF93CF93CDB7DEB7AFE4B0E0EFE4F0E08E
:100FB000808180688C93AFE4B0E0EFE4F0E0808162
:100FC0008F7B8C93AFE4B0E0EFE4F0E080818E7F24
:100FD0008C93AFE4B0E0EFE4F0E0808182608C932A
:100FE000AEE4B0E0EEE4F0E0808188608C93AEE4A3
:100FF000B0E0EEE4F0E0808180618C93AEE4B0E09C
:10100000EEE4F0E08081887F8C93AEE4B0E0EEE423
:10101000F0E0808182608C93CF91DF9108951F92E0
:101020000F920FB60F9211242F933F934F935F931C
:101030006F937F938F939F93AF93BF93EF93FF93A0
:10104000DF93CF93CDB7DEB78091F2029091F30298
:10105000009729F0E091F202F091F3020995CF9107
:10106000DF91FF91EF91BF91AF919F918F917F9110
:101070006F915F914F913F912F910F900FBE0F9005
:101080001F901895DF93CF9300D00F92CDB7DEB7A6
:101090009A8389836B83E981FA818285882379F435
:1010A000E981FA8123858B81882F90E0FC01E85249
:1010B000FD4F9081822F692F0E94561115C0E98142
:1010C000FA818285813081F4E981FA8123858B81DF
:1010D000882F90E0FC01E852FD4F8081982F909579
:1010E000822F692F0E94561187E00F900F900F906A
:1010F000CF91DF910895DF93CF9300D0CDB7DEB7C6
:101100009A838983E981FA8183856FEF0E94F80FC2
:10111000E981FA818485E981FA819585692F41E029
:101120000E94E30EE981FA818285882351F4E981E6
:10113000FA818485E981FA819585692F40E00E94D2
:101140004710E981FA818285813051F4E981FA8181
:101150008485E981FA819585692F41E00E944710D5
:1011600087E00F900F90CF91DF910895DF93CF9399
:1011700000D0CDB7DEB79A838983E981FA81828571
:10118000882351F4E981FA818485E981FA81958582
:10119000692F41E00E944710E981FA818285813000
:1011A00051F4E981FA818485E981FA819585692F75
:1011B00040E00E94471087E00F900F90CF91DF91A1
:1011C0000895DF93CF93CDB7DEB762970FB6F8944B
:1011D000DEBF0FBECDBF9A8B898B29893A8988EEF5
:1011E00093E0AC01249FC001259F900D349F900D8A
:1011F000112424EB30E0B9010E94242BCB0188514B
:101200009C4F988B8F87EAE4F0E08F8598899183D3
:10121000808380E090E0A8E4B2E48B879C87AD8770
:10122000BE876B857C858D859E8520E030E04AEF0A
:1012300054E40E941F02DC01CB018F839887A987A9
:10124000BA876F81788589859A8520E030E040E80B
:101250005FE30E94250488232CF481E090E09E83C4
:101260008D833FC06F81788589859A8520E03FEF27
:101270004FE757E40E94C50318164CF56B857C8533
:101280008D859E8520E030E040E251E40E941F02FF
:10129000DC01CB01BC01CD010E944900DC01CB0186
:1012A0009E838D830FC088EC90E09C838B838B8121
:1012B0009C810197F1F79C838B838D819E8101979F
:1012C0009E838D838D819E81009769F714C06F8105
:1012D000788589859A850E944900DC01CB019E832F
:1012E0008D838D819E819A83898389819A810197DB
:1012F000F1F79A83898362960FB6F894DEBF0FBE2A
:10130000CDBFCF91DF910895DF93CF93CDB7DEB7F7
:10131000ADE2B0E0EDE2F0E0808180618C93ADE27F
:10132000B0E0EDE2F0E0808181608C93ADE2B0E06E
:10133000EDE2F0E080818D7F8C93AEE2B0E0EEE2F2
:10134000F0E080818E7F8C93ADE2B0E0EDE2F0E0E2
:10135000808180648C93CF91DF910895DF93CF9348
:10136000CDB7DEB7ADE2B0E0EDE2F0E080818F7E98
:101370008C93ADE2B0E0EDE2F0E0808180648C938C
:10138000CF91DF910895DF93CF930F92CDB7DEB762
:101390008983EFE2F0E089818083EEE2F0E08081F2
:1013A0008823DCF7EFE2F0E080810F90CF91DF91AE
:1013B0000895DF93CF9300D0CDB7DEB789836A83DA
:1013C00089816A8141E00E9447100F900F90CF9170
:1013D000DF910895DF93CF93CDB7DEB727970FB690
:1013E000F894DEBF0FBECDBF8A836B834C833E83F0
:1013F0002D838A816B819E012F5F3F4FA9010E943F
:101400009F118981882391F408C08A816B819E0194
:101410002F5F3F4FA9010E949F1189818823A9F363
:10142000ED81FE81108285E08F8318C08981813033
:1014300099F408C08A816B819E012F5F3F4FA901FB
:101440000E949F1189818130A9F3ED81FE8181E0A5
:10145000808384E08F8302C086E08F838F8127960C
:101460000FB6F894DEBF0FBECDBFCF91DF910895C8
:10147000DF93CF9300D0CDB7DEB789836A838981AC
:101480006A8141E00E94E30E80E00F900F90CF91BF
:10149000DF910895DF93CF9300D0CDB7DEB7898376
:1014A0006A8389816A8141E00E94471080E00F9041
:1014B0000F90CF91DF910895DF93CF9300D0CDB7F8
:1014C000DEB789836A8389816A8140E00E94471080
:1014D00080E00F900F90CF91DF910895DF93CF932D
:1014E00000D0CDB7DEB789836A8389816A810E9483
:1014F000341280E00F900F90CF91DF910895DF9329
:10150000CF93CDB7DEB7A0970FB6F894DEBF0FBE6E
:10151000CDBF8D8F6E8F4F8F28A38D8D6E8D41E047
:101520000E94471088A1882F90E0A0E0B0E0BC01A5
:10153000CD010E94A904DC01CB01898F9A8FAB8F6A
:10154000BC8F698D7A8D8B8D9C8D20E030E04AEFC9
:1015500054E40E941F02DC01CB018D8B9E8BAF8B6C
:10156000B88F6D897E898F89988D20E030E040E8C2
:101570005FE30E94250488232CF481E090E09C8B9B
:101580008B8B3FC06D897E898F89988D20E03FEFDE
:101590004FE757E40E94C50318164CF5698D7A8D04
:1015A0008B8D9C8D20E030E040E251E40E941F02D0
:1015B000DC01CB01BC01CD010E944900DC01CB0163
:1015C0009C8B8B8B0FC088EC90E09A8B898B8989E0
:1015D0009A890197F1F79A8B898B8B899C8901975E
:1015E0009C8B8B8B8B899C89009769F714C06D89C4
:1015F0007E898F89988D0E944900DC01CB019C8BEC
:101600008B8B8B899C89988B8F878F859889019785
:10161000F1F7988B8F878D8D6E8D40E00E9447107B
:101620008F8D882F90E0A0E0B0E0BC01CD010E943A
:10163000A904DC01CB018B879C87AD87BE876B85B6
:101640007C858D859E8520E030E04AEF54E40E9441
:101650001F02DC01CB018F839887A987BA876F812E
:10166000788589859A8520E030E040E85FE30E9434
:10167000250488232CF481E090E09E838D833FC075
:101680006F81788589859A8520E03FEF4FE757E4A1
:101690000E94C50318164CF56B857C858D859E854B
:1016A00020E030E040E251E40E941F02DC01CB0167
:1016B000BC01CD010E944900DC01CB019E838D83DA
:1016C0000FC088EC90E09C838B838B819C81019779
:1016D000F1F79C838B838D819E8101979E838D83FF
:1016E0008D819E81009769F714C06F817885898507
:1016F0009A850E944900DC01CB019E838D838D81F8
:101700009E819A83898389819A810197F1F79A83CF
:10171000898380E0A0960FB6F894DEBF0FBECDBFE0
:10172000CF91DF910895DF93CF93CDB7DEB782E0FD
:101730006FEF0E94561182E064E040E00E94E30EE9
:1017400082E065E040E00E94E30E82E066E040E077
:101750000E94E30E82E067E040E00E94E30E82E038
:1017600060E041E00E94E30E82E061E041E00E941F
:10177000E30E82E062E041E00E94E30E82E063E07B
:1017800041E00E94E30ECF91DF910895DF93CF9364
:10179000CDB7DEB7A2970FB6F894DEBF0FBECDBFB0
:1017A0008FEF8B831D8281E08E8382E08F8383E0C5
:1017B000888784E0898785E08A8786E08B8787E051
:1017C0008C87CE010D969F8F8E8FE2EEF2E0F9A30B
:1017D000E8A3F0E1FAA3E8A1F9A1008088A199A10A
:1017E000019699A388A3EE8DFF8D00828E8D9F8D2B
:1017F00001969F8F8E8F9AA191509AA3EAA1EE2312
:1018000051F71A8268C08A81282F30E0CE010596F0
:10181000FC01E20FF31F908182E0692F40E00E94FB
:101820004710198243C08981282F30E0CE010996E4
:10183000FC01E20FF31F90819E012C5F3F4F82E07D
:10184000692FA9010E949F118C81882361F511C025
:101850008981282F30E0CE010996FC01E20FF31FA9
:1018600090819E012C5F3F4F82E0692FA9010E9469
:101870009F118C81882361F38981282F30E08A8130
:10188000482F50E0220F331F220F331FCE01019645
:10189000820F931F840F951FFC013C9680818B83E0
:1018A000FB81FD8F1EC089818F5F89838981843090
:1018B00008F4B9CF8A81282F30E0CE010596FC01CB
:1018C000E20FF31F908182E0692F41E00E944710F0
:1018D0008A818F5F8A838A81843008F494CF8B81D8
:1018E0008D8F8D8DA2960FB6F894DEBF0FBECDBF43
:1018F000CF91DF910895DF93CF93CDB7DEB7AFE5FA
:10190000B0E0EFE5F0E0808180688C93CF91DF91CB
:101910000895DF93CF93CDB7DEB7AFE5B0E0EFE545
:10192000F0E080818F778C93CF91DF910895DF93E2
:10193000CF9300D0CDB7DEB79A838983A5E5B0E019
:10194000E5E5F0E0808182608C93A5E5B0E0E5E517
:10195000F0E080818E7F8C9389819A81009731F0AD
:1019600089819A819093F5028093F402ABE5B0E00F
:10197000EBE5F0E0808180648C930F900F90CF9125
:10198000DF910895DF93CF93CDB7DEB7A5E5B0E043
:10199000E5E5F0E0808188608C93A5E5B0E0E5E5C1
:1019A000F0E080818B7F8C93ABE5B0E0EBE5F0E07D
:1019B000808180688C93CF91DF910895DF93CF93DE
:1019C000CDB7DEB7A4E5B0E0E4E5F0E08081806467
:1019D0008C93ABE5B0E0EBE5F0E0808180688C9320
:1019E000CF91DF9108951F920F920FB60F9211249D
:1019F0002F933F934F935F936F937F938F939F9317
:101A0000AF93BF93EF93FF93DF93CF93CDB7DEB741
:101A1000E091F402F091F5020995CF91DF91FF91E9
:101A2000EF91BF91AF919F918F917F916F915F9156
:101A30004F913F912F910F900FBE0F901F901895CF
:101A4000DF93CF930F92CDB7DEB78983E3E2F0E067
:101A500082E08083A1E2B0E0E1E2F0E080818D7F6E
:101A60008C93A1E2B0E0E1E2F0E080818E7F8C9384
:101A70008981882329F0E2E2F0E08981880F808360
:101A8000A6E5B0E0E6E5F0E0808184608C930F90FD
:101A9000CF91DF910895DF93CF930F92CDB7DEB74B
:101AA0008983E2E2F0E08981880F8083A6E5B0E0D7
:101AB000E6E5F0E0808184608C930F90CF91DF9118
:101AC0000895DF93CF930F92CDB7DEB71982A6E5C5
:101AD000B0E0E6E5F0E0808180628C93A6E5B0E0BE
:101AE000E6E5F0E0808180688C93E6E5F0E08081B7
:101AF0008823DCF7E1E2F0E08081882F90E0887FA6
:101B000090708830910511F081E0898389810F9070
:101B1000CF91DF910895DF93CF930F92CDB7DEB7CA
:101B20001982A6E5B0E0E6E5F0E0808180628C9362
:101B3000A6E5B0E0E6E5F0E0808180688C93E6E51C
:101B4000F0E080818823DCF7E1E2F0E08081882FFB
:101B500090E0887F90708031910511F082E0898358
:101B600089810F90CF91DF910895DF93CF9300D0BB
:101B7000CDB7DEB78A831982A6E5B0E0E6E5F0E0EE
:101B800080818F7D8C93E3E2F0E08A81880F8083EF
:101B9000A3E2B0E0E3E2F0E080818E7F8C93A6E5E3
:101BA000B0E0E6E5F0E0808180688C93E6E5F0E067
:101BB00080818823DCF7E1E2F0E08081882F90E0EB
:101BC000887F90708831910511F083E08983898145
:101BD0000F900F90CF91DF910895DF93CF9300D0B6
:101BE000CDB7DEB78A831982A6E5B0E0E6E5F0E07E
:101BF00080818F7D8C93E3E2F0E08A81880F80837F
:101C0000A3E2B0E0E3E2F0E0808181608C93A6E59E
:101C1000B0E0E6E5F0E0808180688C93E6E5F0E0F6
:101C200080818823DCF7E1E2F0E08081882F90E07A
:101C3000887F90708034910511F084E089838981D8
:101C40000F900F90CF91DF910895DF93CF9300D045
:101C5000CDB7DEB78A831982E3E2F0E08A81808320
:101C6000A6E5B0E0E6E5F0E0808180688C93E6E5EB
:101C7000F0E080818823DCF7E1E2F0E08081882FCA
:101C800090E0887F90708832910511F085E089831B
:101C900089810F900F90CF91DF910895DF93CF93BB
:101CA00000D00F92CDB7DEB79B838A831982A6E559
:101CB000B0E0E6E5F0E0808180648C93A6E5B0E0DA
:101CC000E6E5F0E0808180688C93E6E5F0E08081D5
:101CD0008823DCF7E1E2F0E08081882F90E0887FC4
:101CE00090708035910519F086E0898306C0E3E2A3
:101CF000F0E08081EA81FB81808389810F900F90E1
:101D00000F90CF91DF910895DF93CF93CDB7DEB7DA
:101D1000A6E5B0E0E6E5F0E0808180618C93A6E581
:101D2000B0E0E6E5F0E0808180688C93CF91DF91B0
:101D30000895DF93CF9300D00F92CDB7DEB79A838B
:101D400089836B83ECE3F0E08081882F90E08270E0
:101D500090700097B9F7EEE3F0E089818083EDE3BE
:101D6000F0E08B818083ACE3B0E0ECE3F0E08081D5
:101D700086608C930F900F900F90CF91DF91089514
:101D8000DF93CF9300D0CDB7DEB79A838983ECE39E
:101D9000F0E08081882F90E0827090700097B9F712
:101DA000EEE3F0E089818083ACE3B0E0ECE3F0E0C7
:101DB000808181608C93EDE3F0E080810F900F9043
:101DC000CF91DF910895DF93CF93CDB7DEB72897FA
:101DD0000FB6F894DEBF0FBECDBF89836A834B83F5
:101DE0008A81883018F022E02887F8C08B81882308
:101DF00009F077C08981282F30E03F832E838E81C0
:101E00009F818130910559F12E813F81223031052A
:101E10002CF48E819F81009769F060C02E813F81F4
:101E20002230310589F18E819F818330910509F43B
:101E300040C054C0AAE3B0E0EAE3F0E08081482F5C
:101E40008A81282F30E081E090E0022E02C0880FC6
:101E5000991F0A94E2F7809584238C93BEC0A7E370
:101E6000B0E0E7E3F0E08081482F8A81282F30E05E
:101E700081E090E0022E02C0880F991F0A94E2F7D9
:101E8000809584238C93A9C0A4E3B0E0E4E3F0E060
:101E90008081482F8A81282F30E081E090E0022E57
:101EA00002C0880F991F0A94E2F7809584238C93CF
:101EB00094C0A1E3B0E0E1E3F0E08081482F8A81A3
:101EC000282F30E081E090E0022E02C0880F991F99
:101ED0000A94E2F7809584238C937FC091E09887E1
:101EE0007DC08B81813009F072C08981282F30E05C
:101EF0003D832C838C819D818130910549F12C811A
:101F00003D81223031052CF48C819D81009761F058
:101F10005BC02C813D812230310571F18C819D8126
:101F200083309105E9F150C0AAE3B0E0EAE3F0E0C4
:101F30008081482F8A81282F30E081E090E0022EB6
:101F400002C0880F991F0A94E2F7842B8C9345C036
:101F5000A7E3B0E0E7E3F0E08081482F8A81282FF3
:101F600030E081E090E0022E02C0880F991F0A94B1
:101F7000E2F7842B8C9331C0A4E3B0E0E4E3F0E01B
:101F80008081482F8A81282F30E081E090E0022E66
:101F900002C0880F991F0A94E2F7842B8C931DC00E
:101FA000A1E3B0E0E1E3F0E08081482F8A81282FAF
:101FB00030E081E090E0022E02C0880F991F0A9461
:101FC000E2F7842B8C9309C091E0988707C08B813E
:101FD000823018F023E0288701C01886888528966B
:101FE0000FB6F894DEBF0FBECDBFCF91DF9108953D
:101FF000DF93CF9300D000D00F92CDB7DEB78983A7
:102000006A838981843018F021E02D8337C089816B
:10201000282F30E03C832B838B819C81813091057C
:10202000D1F02B813C81223031052CF48B819C81B5
:10203000009761F01FC02B813C812230310581F077
:102040008B819C818330910581F014C0EAE3F0E03C
:102050008A81808312C0E7E3F0E08A8180830DC02B
:10206000E4E3F0E08A81808308C0E1E3F0E08A8164
:10207000808303C093E09D8301C01D828D810F90FA
:102080000F900F900F900F90CF91DF910895DF93F5
:10209000CF93CDB7DEB728970FB6F894DEBF0FBE4B
:1020A000CDBF89836A834B838A81883018F022E010
:1020B0002887F2C08B81882309F077C08981282F77
:1020C00030E03F832E838E819F818130910559F1CD
:1020D0002E813F81223031052CF48E819F81009723
:1020E00069F060C02E813F812230310589F18E81F7
:1020F0009F818330910509F440C054C0ABE3B0E048
:10210000EBE3F0E08081482F8A81282F30E081E0E6
:1021100090E0022E02C0880F991F0A94E2F7809582
:1021200084238C93B8C0A8E3B0E0E8E3F0E08081BA
:10213000482F8A81282F30E081E090E0022E02C0F3
:10214000880F991F0A94E2F7809584238C93A3C08B
:10215000A5E3B0E0E5E3F0E08081482F8A81282FF5
:1021600030E081E090E0022E02C0880F991F0A94AF
:10217000E2F7809584238C938EC0A2E3B0E0E2E383
:10218000F0E08081482F8A81282F30E081E090E0C4
:10219000022E02C0880F991F0A94E2F780958423CB
:1021A0008C9379C091E0988777C08B81813009F05A
:1021B00072C08981282F30E03D832C838C819D81E2
:1021C0008130910549F12C813D81223031052CF47B
:1021D0008C819D81009761F05BC02C813D81223014
:1021E000310571F18C819D8183309105E9F150C0F9
:1021F000ABE3B0E0EBE3F0E08081482F8A81282F49
:1022000030E081E090E0022E02C0880F991F0A940E
:10221000E2F7842B8C933FC0A8E3B0E0E8E3F0E062
:102220008081482F8A81282F30E081E090E0022EC3
:1022300002C0880F991F0A94E2F7842B8C932BC05D
:10224000A5E3B0E0E5E3F0E08081482F8A81282F04
:1022500030E081E090E0022E02C0880F991F0A94BE
:10226000E2F7842B8C9317C0A2E3B0E0E2E3F0E046
:102270008081482F8A81282F30E081E090E0022E73
:1022800002C0880F991F0A94E2F7842B8C9303C035
:1022900091E0988701C01886888528960FB6F89433
:1022A000DEBF0FBECDBFCF91DF910895DF93CF93F7
:1022B00000D000D00F92CDB7DEB789836A838981C1
:1022C000282F30E03D832C838C819D8181309105C6
:1022D000D1F02C813D81223031052CF48C819D81FF
:1022E000009761F01FC02C813D812230310581F0C3
:1022F0008C819D818330910581F014C0EBE3F0E087
:102300008A81808312C0E8E3F0E08A8180830DC077
:10231000E5E3F0E08A81808308C0E2E3F0E08A81AF
:10232000808303C091E09B8301C01B828B810F904F
:102330000F900F900F900F90CF91DF910895DF9342
:10234000CF93CDB7DEB727970FB6F894DEBF0FBE99
:10235000CDBF89836A835C834B838B819C8100978B
:1023600031F08A81883018F022E02F8373C0898190
:10237000282F30E03E832D838D819E818130910511
:1023800049F12D813E81223031052CF48D819E81D1
:10239000009761F05BC02D813E812230310571F1E3
:1023A0008D819E8183309105E9F150C0E9E3F0E031
:1023B0008081482F8A81282F30E081E090E0022E32
:1023C00002C0880F991F0A94E2F78423EB81FC81F5
:1023D00080833FC0E6E3F0E08081482F8A81282F88
:1023E00030E081E090E0022E02C0880F991F0A942D
:1023F000E2F78423EB81FC8180832BC0E3E3F0E0F0
:102400008081482F8A81282F30E081E090E0022EE1
:1024100002C0880F991F0A94E2F78423EB81FC81A4
:10242000808317C0E0E3F0E08081482F8A81282F65
:1024300030E081E090E0022E02C0880F991F0A94DC
:10244000E2F78423EB81FC81808303C091E09F83CA
:1024500001C01F828F8127960FB6F894DEBF0FBE92
:10246000CDBFCF91DF910895DF93CF9300D000D0FF
:102470000F92CDB7DEB789836A838A81883018F0DE
:1024800022E02D8373C08981282F30E03C832B8389
:102490008B819C818130910549F12B813C812230D7
:1024A00031052CF48B819C81009761F05BC02B81FE
:1024B0003C812230310571F18B819C818330910503
:1024C000E9F150C0ABE3B0E0EBE3F0E08081482FEE
:1024D0008A81282F30E081E090E0022E02C0880F30
:1024E000991F0A94E2F784278C933FC0A8E3B0E0D9
:1024F000E8E3F0E08081482F8A81282F30E081E0F6
:1025000090E0022E02C0880F991F0A94E2F78427F8
:102510008C932BC0A5E3B0E0E5E3F0E08081482F89
:102520008A81282F30E081E090E0022E02C0880FDF
:10253000991F0A94E2F784278C9317C0A2E3B0E0B6
:10254000E2E3F0E08081482F8A81282F30E081E0AB
:1025500090E0022E02C0880F991F0A94E2F78427A8
:102560008C9303C091E09D8301C01D828D810F90EB
:102570000F900F900F900F90CF91DF910895DF9300
:10258000CF93CDB7DEB72E970FB6F894DEBF0FBE50
:10259000CDBF80E06FEF0E94F80F80E090E0A4E3F1
:1025A000B2E48B879C87AD87BE876B857C858D85E4
:1025B0009E8520E030E04AEF54E40E941F02DC01D7
:1025C000CB018F839887A987BA876F8178858985A2
:1025D0009A8520E030E040E85FE30E9425048823EC
:1025E0002CF481E090E09E838D833FC06F817885DD
:1025F00089859A8520E03FEF4FE757E40E94C503A5
:1026000018164CF56B857C858D859E8520E030E025
:1026100040E251E40E941F02DC01CB01BC01CD016C
:102620000E944900DC01CB019E838D830FC088ECA2
:1026300090E09C838B838B819C810197F1F79C8335
:102640008B838D819E8101979E838D838D819E8159
:10265000009769F714C06F81788589859A850E94F3
:102660004900DC01CB019E838D838D819E819A83FD
:10267000898389819A810197F1F79A83898383E01D
:102680000E945D1382E00E945D1388E20E945D1348
:1026900088E00E945D1381E00E945D1386E00E9445
:1026A0005D138CE00E945D132E960FB6F894DEBF8A
:1026B0000FBECDBFCF91DF910895DF93CF93CDB7FC
:1026C000DEB7C354D0400FB6F894DEBF0FBECDBF07
:1026D000FE01ED5BFF4F8083FE01ED5BFF4F8081CC
:1026E000982F907F80E0692F0E94561180E060E073
:1026F00040E00E94471080E062E040E00E94471006
:1027000080E061E041E00E944710FE01FF9680E01A
:1027100090E0A0E0B0E480839183A283B383FE01C4
:10272000FF96608171818281938120E030E04AEFE1
:1027300054E40E941F02DC01CB018BAF9CAFADAF14
:10274000BEAF6BAD7CAD8DAD9EAD20E030E040E81E
:102750005FE30E94250488232CF481E090E09AAF87
:1027600089AF41C06BAD7CAD8DAD9EAD20E03FEF3C
:102770004FE757E40E94C50318165CF5FE01FF966B
:10278000608171818281938120E030E040E251E4F8
:102790000E941F02DC01CB01BC01CD010E94490057
:1027A000DC01CB019AAF89AF0FC088EC90E098AF05
:1027B0008FAB8FA998AD0197F1F798AF8FAB89AD2B
:1027C0009AAD01979AAF89AF89AD9AAD009769F735
:1027D00014C06BAD7CAD8DAD9EAD0E944900DC0197
:1027E000CB019AAF89AF89AD9AAD9EAB8DAB8DA968
:1027F0009EA90197F1F79EAB8DAB80E061E040E0D0
:102800000E94471080E090E0A8E4B3E489AB9AAB63
:10281000ABABBCAB69A97AA98BA99CA92BEA3AEA14
:102820004AE250E40E941F02DC01CB018DA79EA763
:10283000AFA7B8AB6DA57EA58FA598A920E030E025
:1028400040E85FE30E94250488231CF481E08CA704
:1028500091C06DA57EA58FA598A920E030E04FE737
:1028600053E40E94C50318160CF07BC069A97AA92D
:102870008BA99CA920E030E04AE754E40E941903A8
:10288000DC01CB0188A799A7AAA7BBA768A579A552
:102890008AA59BA520E030E04AEF54E40E941F0285
:1028A000DC01CB018CA39DA3AEA3BFA36CA17DA132
:1028B0008EA19FA120E030E040E85FE30E94250464
:1028C00088232CF481E090E09BA38AA33FC06CA1F5
:1028D0007DA18EA19FA120E03FEF4FE757E40E942A
:1028E000C50318164CF568A579A58AA59BA520E017
:1028F00030E040E251E40E941F02DC01CB01BC0148
:10290000CD010E944900DC01CB019BA38AA30FC02B
:1029100088EC90E099A388A388A199A10197F1F789
:1029200099A388A38AA19BA101979BA38AA38AA1AB
:102930009BA1009769F724C06CA17DA18EA19FA1E6
:102940000E944900DC01CB019BA38AA38AA19BA121
:102950009F8F8E8F8E8D9F8D0197F1F79F8F8E8F1A
:102960000FC06DA57EA58FA598A90E944900DC0126
:10297000CB018CA78CA58D8F8D8D8A95F1F78D8FCE
:10298000FE01ED5BFF4F8081882F90E0829592954C
:10299000907F9827807F9827982F80E0692F0E944A
:1029A000561180E060E040E00E94471080E062E065
:1029B00040E00E94471080E061E041E00E94471043
:1029C00080E090E0A0E0B0E4898F9A8FAB8FBC8F5D
:1029D000698D7A8D8B8D9C8D20E030E04AEF54E438
:1029E0000E941F02DC01CB018D8B9E8BAF8BB88FB9
:1029F0006D897E898F89988D20E030E040E85FE323
:102A00000E94250488232CF481E090E09C8B8B8B22
:102A10003FC06D897E898F89988D20E03FEF4FE719
:102A200057E40E94C50318164CF5698D7A8D8B8D7D
:102A30009C8D20E030E040E251E40E941F02DC0166
:102A4000CB01BC01CD010E944900DC01CB019C8B74
:102A50008B8B0FC088EC90E09A8B898B89899A893F
:102A60000197F1F79A8B898B8B899C8901979C8BB5
:102A70008B8B8B899C89009769F714C06D897E893F
:102A80008F89988D0E944900DC01CB019C8B8B8B38
:102A90008B899C89988B8F878F8598890197F1F70F
:102AA000988B8F8780E061E040E00E94471080E0D3
:102AB00090E0A0E0B0E48B879C87AD87BE876B85F4
:102AC0007C858D859E8520E030E04AEF54E40E94AD
:102AD0001F02DC01CB018F839887A987BA876F819A
:102AE000788589859A8520E030E040E85FE30E94A0
:102AF000250488232CF481E090E09E838D833FC0E1
:102B00006F81788589859A8520E03FEF4FE757E40C
:102B10000E94C50318164CF56B857C858D859E85B6
:102B200020E030E040E251E40E941F02DC01CB01D2
:102B3000BC01CD010E944900DC01CB019E838D8345
:102B40000FC088EC90E09C838B838B819C810197E4
:102B5000F1F79C838B838D819E8101979E838D836A
:102B60008D819E81009769F714C06F817885898572
:102B70009A850E944900DC01CB019E838D838D8163
:102B80009E819A83898389819A810197F1F79A833B
:102B90008983CD5BDF4F0FB6F894DEBF0FBECDBF8C
:102BA000CF91DF910895DF93CF93CDB7DEB7AB9789
:102BB0000FB6F894DEBF0FBECDBF8BA78BA5982FA5
:102BC000907F80E0692F0E94561180E060E041E034
:102BD0000E94471080E062E040E00E94471080E0E1
:102BE00061E041E00E94471080E090E0A0E0B0E4A6
:102BF0008FA398A7A9A7BAA76FA178A589A59AA519
:102C000020E030E04AEF54E40E941F02DC01CB01D7
:102C10008BA39CA3ADA3BEA36BA17CA18DA19EA100
:102C200020E030E040E85FE30E94250488232CF494
:102C300081E090E09AA389A33FC06BA17CA18DA104
:102C40009EA120E03FEF4FE757E40E94C50318160E
:102C50004CF56FA178A589A59AA520E030E040E267
:102C600051E40E941F02DC01CB01BC01CD010E9496
:102C70004900DC01CB019AA389A30FC088EC90E046
:102C800098A38F8F8F8D98A10197F1F798A38F8FBD
:102C900089A19AA101979AA389A389A19AA10097D2
:102CA00069F714C06BA17CA18DA19EA10E9449006F
:102CB000DC01CB019AA389A389A19AA19E8F8D8F54
:102CC0008D8D9E8D0197F1F79E8F8D8F80E061E055
:102CD00040E00E9447108BA5882F90E08295929546
:102CE000907F9827807F9827982F80E0692F0E94F7
:102CF000561180E060E041E00E94471080E062E011
:102D000040E00E94471080E061E041E00E944710EF
:102D100080E090E0A0E0B0E4898F9A8FAB8FBC8F09
:102D2000698D7A8D8B8D9C8D20E030E04AEF54E4E4
:102D30000E941F02DC01CB018D8B9E8BAF8BB88F65
:102D40006D897E898F89988D20E030E040E85FE3CF
:102D50000E94250488232CF481E090E09C8B8B8BCF
:102D60003FC06D897E898F89988D20E03FEF4FE7C6
:102D700057E40E94C50318164CF5698D7A8D8B8D2A
:102D80009C8D20E030E040E251E40E941F02DC0113
:102D9000CB01BC01CD010E944900DC01CB019C8B21
:102DA0008B8B0FC088EC90E09A8B898B89899A89EC
:102DB0000197F1F79A8B898B8B899C8901979C8B62
:102DC0008B8B8B899C89009769F714C06D897E89EC
:102DD0008F89988D0E944900DC01CB019C8B8B8BE5
:102DE0008B899C89988B8F878F8598890197F1F7BC
:102DF000988B8F8780E061E040E00E94471080E080
:102E000090E0A0E0B0E48B879C87AD87BE876B85A0
:102E10007C858D859E8520E030E04AEF54E40E9459
:102E20001F02DC01CB018F839887A987BA876F8146
:102E3000788589859A8520E030E040E85FE30E944C
:102E4000250488232CF481E090E09E838D833FC08D
:102E50006F81788589859A8520E03FEF4FE757E4B9
:102E60000E94C50318164CF56B857C858D859E8563
:102E700020E030E040E251E40E941F02DC01CB017F
:102E8000BC01CD010E944900DC01CB019E838D83F2
:102E90000FC088EC90E09C838B838B819C81019791
:102EA000F1F79C838B838D819E8101979E838D8317
:102EB0008D819E81009769F714C06F81788589851F
:102EC0009A850E944900DC01CB019E838D838D8110
:102ED0009E819A83898389819A810197F1F79A83E8
:102EE0008983AB960FB6F894DEBF0FBECDBFCF91EE
:102EF000DF910895DF93CF93CDB7DEB78091F602CF
:102F00009091F70201969093F7028093F6028091D8
:102F1000F6029091F7028230910520F01092F702AC
:102F20001092F6028091F6029091F702813091059D
:102F300021F480EC0E945D1306C081E00E945D13C5
:102F400080E80E945D131092F9021092F802CF916E
:102F5000DF910895DF93CF9300D00F92CDB7DEB706
:102F60009B838A83198213C08981803119F480EC94
:102F70000E945D13EA81FB8180810E94D3158A81C2
:102F80009B8101969B838A8389818F5F8983EA81F4
:102F9000FB818081882319F08981803228F30F908A
:102FA0000F900F90CF91DF910895DF93CF9300D0D2
:102FB0000F92CDB7DEB78A836B838B81823010F09E
:102FC00081E08B838A81803110F08FE08A838B814E
:102FD000882319F48A81898306C08B81813019F492
:102FE0008A81805C898389818068898389810E9444
:102FF0005D130F900F900F90CF91DF910895DF93A5
:10300000CF93CDB7DEB727970FB6F894DEBF0FBECC
:10301000CDBF9C838B836D834E832F831A828D81DA
:10302000882F90E0880F991F880F991F880F991F8C
:103030008A838A81805C0E945D1319820EC0898117
:10304000282F30E08B819C81FC01E20FF31F8081EF
:103050000E94D31589818F5F89838981883078F3B5
:103060008E816F810E94D5178D810E94D31527967E
:103070000FB6F894DEBF0FBECDBFCF91DF9108959C
:10308000DF93CF9300D000D0CDB7DEB79C838B8386
:103090001A8219828B819C810097A1F481E090E0D3
:1030A0009A8389830FC089819A8101969A83898343
:1030B0008B819C812AE030E0B9010E94242BCB0156
:1030C0009C838B838B819C81009769F789819A818E
:1030D0000F900F900F900F90CF91DF910895DF9395
:1030E000CF93CDB7DEB76E970FB6F894DEBF0FBEA5
:1030F000CDBF9E8F8D8F1C861B868D8D9E8D0E94D1
:1031000040189A87898727C08D8D9E8D2AE030E0F0
:10311000B9010E94242B8A832B853C858A81482F04
:10312000405DCE010D96FC01E20FF31F40838D8DB3
:103130009E8D2AE030E0B9010E94242BCB019E8FA6
:103140008D8F89859A8501979A8789878B859C853C
:1031500001969C878B8789859A850097A9F62B8590
:103160003C85CE010D96FC01E20FF31F10821886FC
:103170001F828B859C8501979E838D832CC02F8118
:103180003885CE010D96FC01E20FF31F8081898303
:103190004F8158852D813E81CE010D96FC01E20FB5
:1031A000F31F2081CE010D96FC01E40FF51F208353
:1031B0002D813E81CE010D96FC01E20FF31F898126
:1031C00080838F819885019698878F838D819E81DA
:1031D00001979E838D832F8138858D819E8128174D
:1031E000390768F21C821B8226C02B813C81CE01EC
:1031F0000D96FC01E20FF31F8081882321F480E308
:103200000E94D3150AC02B813C81CE010D96FC0192
:10321000E20FF31F80810E94D3158B819C81019660
:103220009C838B838091F8029091F9020196909390
:10323000F9028093F8022B813C81CE010D96FC01AE
:10324000E20FF31F8081882381F66E960FB6F89403
:10325000DEBF0FBECDBFCF91DF910895DF93CF9337
:10326000CDB7DEB781E00E945D13CF91DF91089565
:10327000DF93CF9300D00F92CDB7DEB789836A83F7
:103280004B838981823018F08981833099F58A8156
:10329000883080F58B81823068F5A7E2B0E0E7E204
:1032A000F0E08081382F3F718981882F90E00024E1
:1032B000969587950794969587950794982F802DD6
:1032C000282F8B81882F90E0880F991F82959295E7
:1032D000907F9827807F9827822B832B8C93A6E260
:1032E000B0E0E6E2F0E08081982F987F8A818068E4
:1032F000892B8C930F900F900F90CF91DF910895B1
:10330000DF93CF93CDB7DEB7A6E2B0E0E6E2F0E020
:10331000808180688C93CF91DF910895DF93CF9364
:10332000CDB7DEB7A6E2B0E0E6E2F0E080818F77CD
:103330008C93CF91DF910895DF93CF93CDB7DEB714
:10334000A6E2B0E0E6E2F0E0808188608C93CF9165
:10335000DF910895DF93CF93CDB7DEB7A6E2B0E05B
:10336000E6E2F0E08081877F8C93CF91DF91089532
:10337000DF93CF9300D0CDB7DEB79A83898389815D
:103380009A819093FB028093FA020F900F90CF9155
:10339000DF910895DF93CF930F92CDB7DEB7898386
:1033A00089810E94F3190E940E1A0E941E1AE5E2FA
:1033B000F0E080810F90CF91DF910895DF93CF935C
:1033C0000F92CDB7DEB7898389810E94F3190E94DD
:1033D0000E1A0E941E1AE4E2F0E0808191810F90A3
:1033E000CF91DF910895DF93CF930F92CDB7DEB7E2
:1033F0008983A7E2B0E0E7E2F0E08081982F907E39
:103400008981892B8C93A6E2B0E0E6E2F0E080812E
:1034100080648C930F90CF91DF910895DF93CF93C9
:10342000CDB7DEB7E6E2F0E08081882F90E08071D2
:1034300090700097B9F3CF91DF910895DF93CF9308
:10344000CDB7DEB7A6E2B0E0E6E2F0E080818061D1
:103450008C93CF91DF9108951F920F920FB60F9228
:1034600011242F933F934F935F936F937F938F9389
:103470009F93AF93BF93EF93FF93DF93CF93CDB71A
:10348000DEB78091FA029091FB02009729F0E0915B
:10349000FA02F091FB020995CF91DF91FF91EF9134
:1034A000BF91AF919F918F917F916F915F914F915C
:1034B0003F912F910F900FBE0F901F9018950F9373
:1034C0001F93DF93CF93CDB7DEB7C756D1400FB66A
:1034D000F894DEBF0FBECDBF0E947B0C81E061E09F
:1034E00041E00E94E30ECE018B509F4F2EE4FC0181
:1034F000DF01322F1D923A95E9F7CE018B509F4F95
:10350000CB5BDE4F99838883C554D140CB5BDE4FC4
:10351000A881B981C554D140C95BDE4FB983A88366
:10352000C754D140EEE8F1E0C75BDE4FF983E88392
:10353000C954D140F7E0C55BDE4FF883CB54D1408E
:10354000C75BDE4FA881B981C954D1400C90C75BDD
:10355000DE4FE881F981C954D1403196C75BDE4F17
:10356000F983E883C954D140C95BDE4FA881B98192
:10357000C754D1400C92C95BDE4FE881F981C75432
:10358000D1403196C95BDE4FF983E883C754D140FF
:10359000C55BDE4FF881CB54D140F150C55BDE4FA7
:1035A000F883CB54D140C55BDE4F2881CB54D1404A
:1035B000222331F686E0CB5BDE4FE881F981C554EA
:1035C000D1403796DF01282F1D922A95E9F7CE01C9
:1035D0008B509F4FC45BDE4F99838883CC54D1407E
:1035E000C45BDE4FA881B981CC54D1401D96C25B2B
:1035F000DE4FB983A883CE54D140EBE9F1E0C05B44
:10360000DE4FF983E883C055D140F9E0CE5ADE4F52
:10361000F883C255D140C05BDE4FA881B981C05547
:10362000D1400C90C05BDE4FE881F981C055D1409C
:103630003196C05BDE4FF983E883C055D140C25B51
:10364000DE4FA881B981CE54D1400C92C25BDE4FCF
:10365000E881F981CE54D1403196C25BDE4FF983C7
:10366000E883CE54D140CE5ADE4FF881C255D140C6
:10367000F150CE5ADE4FF883C255D140CE5ADE4FBC
:103680002881C255D140222331F6C45BDE4FA88188
:10369000B981CC54D14056961D921D921D921C9218
:1036A0005997FE01EB50FF4FCD5ADE4FF983E88367
:1036B000C355D140CD5ADE4F28813981C355D14001
:1036C000265E3F4FCB5ADE4F39832883C555D14004
:1036D00088EA91E0C95ADE4F99838883C755D14063
:1036E00096E0C75ADE4F9883C955D140C95ADE4F7C
:1036F000A881B981C755D1400C90C95ADE4FE881E5
:10370000F981C755D1403196C95ADE4FF983E88314
:10371000C755D140CB5ADE4FA881B981C555D1409C
:103720000C92CB5ADE4FE881F981C555D1403196D4
:10373000CB5ADE4FF983E883C555D140C75ADE4FD7
:10374000F881C955D140F150C75ADE4FF883C955A9
:10375000D140C75ADE4F2881C955D140222331F6C6
:1037600087E0CD5ADE4FE881F981C355D140B0964C
:10377000DF01282F1D922A95E9F7CE018B509F4F2C
:10378000C65ADE4F99838883CA55D140C65ADE4F48
:10379000A881B981CA55D1409796C45ADE4FB983E2
:1037A000A883CC55D140E5EBF1E0C25ADE4FF98356
:1037B000E883CE55D140F8E0C05ADE4FF883C056BA
:1037C000D140C25ADE4FA881B981CE55D1400C906C
:1037D000C25ADE4FE881F981CE55D1403196C25AA6
:1037E000DE4FF983E883CE55D140C45ADE4FA8811D
:1037F000B981CC55D1400C92C45ADE4FE881F98191
:10380000CC55D1403196C45ADE4FF983E883CC556C
:10381000D140C05ADE4FF881C056D140F150C05A55
:10382000DE4FF883C056D140C05ADE4F2881C056C3
:10383000D140222331F685E0C65ADE4FE881F98176
:10384000CA55D140BF96DF01282F1D922A95E9F76E
:10385000CE018B509F4FDC01D496CF59DE4FB983F8
:10386000A883C156D140E2ECF1E0CD59DE4FF98397
:10387000E883C356D140FDE0CB59DE4FF883C556EF
:10388000D140CD59DE4FA881B981C356D1400C90AB
:10389000CD59DE4FE881F981C356D1403196CD59DB
:1038A000DE4FF983E883C356D140CF59DE4FA8815C
:1038B000B981C156D1400C92CF59DE4FE881F981D0
:1038C000C156D1403196CF59DE4FF983E883C156B6
:1038D000D140CB59DE4FF881C556D140F150CB597C
:1038E000DE4FF883C556D140CB59DE4F2881C556EF
:1038F000D140222331F6CE018B509F4FFC01EF5B6C
:10390000FF4F108211821282138289E03496DF0108
:10391000282F1D922A95E9F70E94BF120E94930B4F
:103920000E94D0070E945A0780E29EE40E94BE07D0
:1039300083E065E041E00E94E30E83E065E040E063
:103940000E94471083E060E041E00E94E30E81E0C6
:1039500064E041E00E94381983E063E041E00E94A6
:10396000E30E83E063E040E00E94471081E060E006
:1039700041E00E94E30E81E060E040E00E944710D9
:1039800081E061E041E00E94E30E81E061E040E01F
:103990000E94471087EF9AE20E948F0780E690E02E
:1039A0000E94AA17FE01E352FF4F80E090E8ABE3CC
:1039B000B5E480839183A283B3838E0107521F4FA6
:1039C000FE01E352FF4F608171818281938120E08B
:1039D00030E04AEF54E40E941F02DC01CB01F80101
:1039E00080839183A283B383FE01E752FF4F6081FE
:1039F00071818281938120E030E040E85FE30E94A2
:103A00002504882344F4FE01E952FF4F81E090E051
:103A10009183808364C0FE01E752FF4F6081718112
:103A20008281938120E03FEF4FE757E40E94C50376
:103A300018160CF043C0FE01E352FF4F6081718104
:103A40008281938120E030E040E251E40E941F0235
:103A5000DC01CB018E0109521F4FBC01CD010E9438
:103A60004900DC01CB01F801918380831FC0FE0176
:103A7000EB52FF4F88EC90E091838083FE01EB5284
:103A8000FF4F808191810197F1F7FE01EB52FF4FCB
:103A900091838083DE01A952BF4FFE01E952FF4F9F
:103AA00080819181019711969C938E93FE01E9523A
:103AB000FF4F808191810097D1F628C08E01095275
:103AC0001F4FFE01E752FF4F608171818281938118
:103AD0000E944900DC01CB01F80191838083DE0163
:103AE000AD52BF4FFE01E952FF4F80819181119687
:103AF0009C938E93FE01ED52FF4F8081918101973F
:103B0000F1F7FE01ED52FF4F91838083FE01ED50EE
:103B1000FF4F1082FE01EE50FF4F1082FE01EF506A
:103B2000FF4F1082FE01E051FF4F1082FE01E15174
:103B3000FF4F1082FE01E251FF4F1082FE01E35160
:103B4000FF4F83E08083FE01E251FF4F8081882395
:103B500009F0CCC00E942E198BE790E00E94AA17B2
:103B6000FE01E153FF4F80E090E8ABEBB4E48083CB
:103B70009183A283B3838E0105531F4FFE01E1534E
:103B8000FF4F608171818281938120E030E04AEFB4
:103B900054E40E941F02DC01CB01F8018083918371
:103BA000A283B383FE01E553FF4F6081718182815F
:103BB000938120E030E040E85FE30E942504882301
:103BC00044F4FE01E753FF4F81E090E0918380834E
:103BD00064C0FE01E553FF4F608171818281938152
:103BE00020E03FEF4FE757E40E94C50318160CF0A2
:103BF00043C0FE01E153FF4F608171818281938157
:103C000020E030E040E251E40E941F02DC01CB01E1
:103C10008E0107531F4FBC01CD010E944900DC01FA
:103C2000CB01F801918380831FC0FE01E953FF4F50
:103C300088EC90E091838083FE01E953FF4F8081FF
:103C400091810197F1F7FE01E953FF4F9183808342
:103C5000DE01A753BF4FFE01E753FF4F80819181E3
:103C6000019711969C938E93FE01E753FF4F80813D
:103C700091810097D1F627C08E0107531F4FFE0197
:103C8000E553FF4F60817181828193810E944900D9
:103C9000DC01CB01F80191838083DE01AB53BF4F80
:103CA000FE01E753FF4F808191818D939C93FE012C
:103CB000EB53FF4F808191810197F1F7FE01EB53A8
:103CC000FF4F918380830E942E1987E890E00E9425
:103CD000AA1780E061E00E94D5178FE890E00E946B
:103CE000AA17FE01E251FF4F81E08083FE01E551FA
:103CF000FF4F8FEF80830E94C60BFE01E551FF4FFF
:103D00008083FE01E551FF4F8081813011F40C94D6
:103D1000C72AFE01E251FF4F8081823010F40C94DB
:103D2000CF2A0C94C72A84E690E00E946F2B8F3F25
:103D300009F042C30E942E1980E060E00E94D5176E
:103D400087E990E00E94AA17FE01EF53FF4F80E041
:103D500090E0AAEFB3E480839183A283B3838E01C2
:103D600003541F4FFE01EF53FF4F60817181828129
:103D7000938120E030E04AEF54E40E941F02DC010E
:103D8000CB01F80180839183A283B383FE01E354C6
:103D9000FF4F608171818281938120E030E040E8B3
:103DA0005FE30E942504882344F4FE01E554FF4F9D
:103DB00081E090E09183808364C0FE01E354FF4F73
:103DC000608171818281938120E03FEF4FE757E46A
:103DD0000E94C50318160CF043C0FE01EF53FF4FBD
:103DE000608171818281938120E030E040E251E482
:103DF0000E941F02DC01CB018E0105541F4FBC0144
:103E0000CD010E944900DC01CB01F8019183808340
:103E10001FC0FE01E754FF4F88EC90E09183808340
:103E2000FE01E754FF4F808191810197F1F7FE0178
:103E3000E754FF4F91838083DE01A554BF4FFE01FD
:103E4000E554FF4F80819181019711969C938E9349
:103E5000FE01E554FF4F808191810097D1F627C084
:103E60008E0105541F4FFE01E354FF4F60817181A5
:103E7000828193810E944900DC01CB01F80191838A
:103E80008083DE01A954BF4FFE01E554FF4F8081BE
:103E900091818D939C93FE01E954FF4F8081918124
:103EA0000197F1F7FE01E954FF4F918380830E944F
:103EB0002E1981EA90E00E94AA17FE01ED54FF4FEF
:103EC00080E090E0AAEFB3E480839183A283B38380
:103ED0008E0101551F4FFE01ED54FF4F608171812E
:103EE0008281938120E030E04AEF54E40E941F0277
:103EF000DC01CB01F80180839183A283B383FE01AF
:103F0000E155FF4F608171818281938120E030E033
:103F100040E85FE30E942504882344F4FE01E35552
:103F2000FF4F81E090E09183808364C0FE01E15502
:103F3000FF4F608171818281938120E03FEF4FE7E5
:103F400057E40E94C50318160CF043C0FE01ED545F
:103F5000FF4F608171818281938120E030E040E2F7
:103F600051E40E941F02DC01CB018E0103551F4F5B
:103F7000BC01CD010E944900DC01CB01F801918315
:103F800080831FC0FE01E555FF4F88EC90E09183D0
:103F90008083FE01E555FF4F808191810197F1F704
:103FA000FE01E555FF4F91838083DE01A355BF4F8E
:103FB000FE01E355FF4F80819181019711969C93FB
:103FC0008E93FE01E355FF4F808191810097D1F6DA
:103FD00028C08E0103551F4FFE01E155FF4F608140
:103FE0007181828193810E944900DC01CB01F8013B
:103FF00091838083DE01A755BF4FFE01E355FF4F3C
:104000008081918111969C938E93FE01E755FF4F1D
:10401000808191810197F1F7FE01E755FF4F918370
:104020008083FE01E651FF4F1082FE01E751FF4FF2
:104030008CE08083FE01E851FF4F8FEF808306C044
:104040000E94C60BFE01E851FF4F8083FE01E8513C
:10405000FF4F80818F3FA1F3FE01E651FF4F80812A
:10406000882F90E08A599F4FFE01E851FF4F6081F1
:104070000E94772BFE01E651FF4F808161E00E9494
:10408000D517FE01E851FF4F8081882F90E00E94F4
:104090006F18FE01EB55FF4F80E090E0A8E4B3E419
:1040A00080839183A283B3838E010F551F4FFE013E
:1040B000EB55FF4F608171818281938120E030E078
:1040C0004AEF54E40E941F02DC01CB01F801808317
:1040D0009183A283B383FE01EF55FF4F608171810D
:1040E0008281938120E030E040E85FE30E94250474
:1040F000882344F4FE01E156FF4F81E090E0918374
:10410000808364C0FE01EF55FF4F60817181828121
:10411000938120E03FEF4FE757E40E94C503181654
:104120000CF043C0FE01EB55FF4F6081718182812D
:10413000938120E030E040E251E40E941F02DC0164
:10414000CB018E0101561F4FBC01CD010E944900D9
:10415000DC01CB01F801918380831FC0FE01E3568F
:10416000FF4F88EC90E091838083FE01E356FF4F80
:10417000808191810197F1F7FE01E356FF4F918312
:104180008083DE01A156BF4FFE01E156FF4F8081C3
:104190009181019711969C938E93FE01E156FF4FFA
:1041A000808191810097D1F627C08E0101561F4F63
:1041B000FE01EF55FF4F60817181828193810E94E2
:1041C0004900DC01CB01F80191838083DE01A55613
:1041D000BF4FFE01E156FF4F808191818D939C93EB
:1041E000FE01E556FF4F808191810197F1F7FE01B5
:1041F000E556FF4F91838083FE01E651FF4F80819A
:1042000061E00E94D51781EB90E00E94AA17DE01C1
:10421000A651BF4FFE01E651FF4F80818F5F8C9307
:10422000FE01E651FF4F8081843008F403CF0E94E5
:104230002E1983EB90E00E94AA1784E690E060E0DC
:104240000E94772BFE01E956FF4F80E090E0AAEF35
:10425000B3E480839183A283B3838E010D561F4FF5
:10426000FE01E956FF4F608171818281938120E0D8
:1042700030E04AEF54E40E941F02DC01CB01F80158
:1042800080839183A283B383FE01ED56FF4F60814B
:1042900071818281938120E030E040E85FE30E94F9
:1042A0002504882344F4FE01EF56FF4F81E090E09F
:1042B0009183808364C0FE01ED56FF4F6081718160
:1042C0008281938120E03FEF4FE757E40E94C503CE
:1042D00018160CF043C0FE01E956FF4F6081718152
:1042E0008281938120E030E040E251E40E941F028D
:1042F000DC01CB018E010F561F4FBC01CD010E9486
:104300004900DC01CB01F801918380831FC0FE01CD
:10431000E157FF4F88EC90E091838083FE01E157E5
:10432000FF4F808191810197F1F7FE01E157FF4F27
:1043300091838083DE01AF56BF4FFE01EF56FF4FE2
:1043400080819181019711969C938E93FE01EF5687
:10435000FF4F808191810097D1F628C08E010F56C2
:104360001F4FFE01ED56FF4F608171818281938165
:104370000E944900DC01CB01F80191838083DE01BA
:10438000A357BF4FFE01EF56FF4F808191811196D9
:104390009C938E93FE01E357FF4F8081918101979B
:1043A000F1F7FE01E357FF4F91838083FE01E25155
:1043B000FF4F10820C94CF2AFE01E351FF4F808102
:1043C000882361F40E942E1983EC90E00E94AA17C2
:1043D00081E061E041E00E944710FFCFFE01E25121
:1043E000FF4F8081823008F013C10E942E1981EAAC
:1043F00090E00E94AA17FE01E951FF4F1082FE01D2
:10440000E151FF4F1082FE01EA51FF4F8FEF808391
:1044100006C00E94C60BFE01EA51FF4F8083FE01D9
:10442000EA51FF4F80818F3FA1F3FE01E951FF4F19
:104430008081882F90E08A599F4F0E94C00E982F4C
:10444000FE01EA51FF4F8081981729F0FE01E151EA
:10445000FF4F81E08083FE01E951FF4F808161E0E1
:104460000E94D517FE01EA51FF4F8081882F90E00E
:104470000E946F18FE01E757FF4F80E090E0A8E42C
:10448000B3E480839183A283B3838E010B571F4FC4
:10449000FE01E757FF4F608171818281938120E0A7
:1044A00030E04AEF54E40E941F02DC01CB01F80126
:1044B00080839183A283B383FE01EB57FF4F60811A
:1044C00071818281938120E030E040E85FE30E94C7
:1044D0002504882344F4FE01ED57FF4F81E090E06E
:1044E0009183808364C0FE01EB57FF4F608171812F
:1044F0008281938120E03FEF4FE757E40E94C5039C
:1045000018160CF043C0FE01E757FF4F6081718120
:104510008281938120E030E040E251E40E941F025A
:10452000DC01CB018E010D571F4FBC01CD010E9454
:104530004900DC01CB01F801918380831FC0FE019B
:10454000EF57FF4F88EC90E091838083FE01EF5797
:10455000FF4F808191810197F1F7FE01EF57FF4FE7
:1045600091838083DE01AD57BF4FFE01ED57FF4FB2
:1045700080819181019711969C938E93FE01ED5756
:10458000FF4F808191810097D1F627C08E010D5792
:104590001F4FFE01EB57FF4F608171818281938134
:1045A0000E944900DC01CB01F80191838083DE0188
:1045B000A158BF4FFE01ED57FF4F808191818D9330
:1045C0009C93FE01E158FF4F808191810197F1F7A3
:1045D000FE01E158FF4F91838083FE01E951FF4FB7
:1045E000808161E00E94D51781EB90E00E94AA17BC
:1045F000DE01A951BF4FFE01E951FF4F80818F5F5E
:104600008C93FE01E951FF4F8081843008F4FBCE8A
:10461000FE01E151FF4F8081882309F489C1DE0149
:10462000A351BF4FFE01E351FF4F808181508C9316
:104630000E942E1981ED90E00E94AA17FE01E55814
:10464000FF4F80E090E0AAEFB3E480839183A283E0
:10465000B3838E0109581F4FFE01E558FF4F60815B
:1046600071818281938120E030E04AEF54E40E941E
:104670001F02DC01CB01F80180839183A283B38305
:10468000FE01E958FF4F608171818281938120E0B2
:1046900030E040E85FE30E942504882344F4FE01F3
:1046A000EB58FF4F81E090E09183808364C0FE016E
:1046B000E958FF4F608171818281938120E03FEF53
:1046C0004FE757E40E94C50318160CF043C0FE01E3
:1046D000E558FF4F608171818281938120E030E055
:1046E00040E251E40E941F02DC01CB018E010B5815
:1046F0001F4FBC01CD010E944900DC01CB01F80134
:10470000918380831FC0FE01ED58FF4F88EC90E03D
:1047100091838083FE01ED58FF4F80819181019745
:10472000F1F7FE01ED58FF4F91838083DE01AB5816
:10473000BF4FFE01EB58FF4F808191810197119689
:104740009C938E93FE01EB58FF4F808191810097DF
:10475000D1F627C08E010B581F4FFE01E958FF4FBD
:1047600060817181828193810E944900DC01CB01CB
:10477000F80191838083DE01AF58BF4FFE01EB58F3
:10478000FF4F808191818D939C93FE01EF58FF4FE5
:10479000808191810197F1F7FE01EF58FF4F9183DE
:1047A00080830E942E1980EE90E00E94AA1780E07C
:1047B00061E00E94D517FE01E351FF4F8081882FF1
:1047C00090E00E946F18FE01E359FF4F80E090E0F7
:1047D000AFE2B4E480839183A283B3838E0107594F
:1047E0001F4FFE01E359FF4F6081718182819381E8
:1047F00020E030E04AEF54E40E941F02DC01CB01CC
:10480000F80180839183A283B383FE01E759FF4FB0
:10481000608171818281938120E030E040E85FE334
:104820000E942504882344F4FE01E959FF4F81E0EA
:1048300090E09183808364C0FE01E759FF4F60815F
:1048400071818281938120E03FEF4FE757E40E941E
:10485000C50318160CF043C0FE01E359FF4F6081F9
:1048600071818281938120E030E040E251E40E9436
:104870001F02DC01CB018E0109591F4FBC01CD0184
:104880000E944900DC01CB01F801918380831FC0A5
:10489000FE01EB59FF4F88EC90E091838083FE018D
:1048A000EB59FF4F808191810197F1F7FE01EB59A0
:1048B000FF4F91838083DE01A959BF4FFE01E95963
:1048C000FF4F80819181019711969C938E93FE01F9
:1048D000E959FF4F808191810097D1F658C68E012A
:1048E00009591F4FFE01E759FF4F60817181828195
:1048F00093810E944900DC01CB01F8019183808300
:10490000DE01AD59BF4FFE01E959FF4F8081918112
:1049100011969C938E93FE01ED59FF4F80819181FA
:104920000197F1F7FE01ED59FF4F918380832FC668
:10493000FE01E251FF4F8081823009F4B9C00E942C
:104940002E1981EF90E00E94AA17FE01E15AFF4F55
:1049500080E090E0AAE7B4E480839183A283B383EC
:104960008E01055A1F4FFE01E15AFF4F6081718190
:104970008281938120E030E04AEF54E40E941F02DC
:10498000DC01CB01F80180839183A283B383FE0114
:10499000E55AFF4F608171818281938120E030E090
:1049A00040E85FE30E942504882344F4FE01E75AAF
:1049B000FF4F81E090E09183808364C0FE01E55A5F
:1049C000FF4F608171818281938120E03FEF4FE74B
:1049D00057E40E94C50318160CF043C0FE01E15ACB
:1049E000FF4F608171818281938120E030E040E25D
:1049F00051E40E941F02DC01CB018E01075A1F4FB8
:104A0000BC01CD010E944900DC01CB01F80191837A
:104A100080831FC0FE01E95AFF4F88EC90E091832C
:104A20008083FE01E95AFF4F808191810197F1F760
:104A3000FE01E95AFF4F91838083DE01A75ABF4FE1
:104A4000FE01E75AFF4F80819181019711969C9357
:104A50008E93FE01E75AFF4F808191810097D1F636
:104A600027C08E01075A1F4FFE01E55AFF4F608194
:104A70007181828193810E944900DC01CB01F801A0
:104A800091838083DE01AB5ABF4FFE01E75AFF4F8F
:104A9000808191818D939C93FE01EB5AFF4F808121
:104AA00091810197F1F7FE01EB5AFF4F91838083CB
:104AB0000E942E198FEF90E00E94AA17FE01EF5A74
:104AC000FF4F80E090E0AAE7B4E480839183A28363
:104AD000B3838E01035B1F4FFE01EF5AFF4F6081CE
:104AE00071818281938120E030E04AEF54E40E949A
:104AF0001F02DC01CB01F80180839183A283B38381
:104B0000FE01E35BFF4F608171818281938120E030
:104B100030E040E85FE30E942504882344F4FE016E
:104B2000E55BFF4F81E090E09183808364C0FE01EC
:104B3000E35BFF4F608171818281938120E03FEFD1
:104B40004FE757E40E94C50318160CF043C0FE015E
:104B5000EF5AFF4F608171818281938120E030E0C4
:104B600040E251E40E941F02DC01CB018E01055B93
:104B70001F4FBC01CD010E944900DC01CB01F801AF
:104B8000918380831FC0FE01E75BFF4F88EC90E0BC
:104B900091838083FE01E75BFF4F808191810197C4
:104BA000F1F7FE01E75BFF4F91838083DE01A55B98
:104BB000BF4FFE01E55BFF4F808191810197119608
:104BC0009C938E93FE01E55BFF4F8081918100975E
:104BD000D1F627C08E01055B1F4FFE01E35BFF4F3F
:104BE00060817181828193810E944900DC01CB0147
:104BF000F80191838083DE01A95BBF4FFE01E55B75
:104C0000FF4F808191818D939C93FE01E95BFF4F63
:104C1000808191810197F1F7FE01E95BFF4F91835C
:104C200080830E942E19FE01EB51FF4F1082FE017E
:104C3000EC51FF4F8FEF8083F1C080E060E00E9475
:104C4000D517AE014B505F4FFE01EB51FF4F8081F6
:104C5000282F30E0C901880F991F820F931F880FFA
:104C6000991F880F991F820F931F840F951F0E9411
:104C7000AA1780E061E00E94D517FE01EB51FF4FBB
:104C80008081882F90E09C012F5F3F4FC901880FE2
:104C9000991F820F931F880F991F880F991F280F44
:104CA000391FCE018B509F4F820F931F0E94AA176E
:104CB0000E94C60BFE01ED51FF4F8083FE01ED51B6
:104CC000FF4F80818B3209F04DC00E942E19FE01EA
:104CD000EB51FF4F8081843048F4DE01AB51BF4F70
:104CE000FE01EB51FF4F80818F5F8C9380E060E08D
:104CF0000E94D517AE014B505F4FFE01EB51FF4FA5
:104D00008081282F30E0C901880F991F820F931FDF
:104D1000880F991F880F991F820F931F840F951F6B
:104D20000E94AA1780E061E00E94D517FE01EB51B6
:104D3000FF4F8081882F90E09C012F5F3F4FC9017A
:104D4000880F991F820F931F880F991F880F991F33
:104D5000280F391FCE018B509F4F820F931F0E9447
:104D6000AA175CC0FE01ED51FF4F80818D3209F022
:104D70004DC00E942E19FE01EB51FF4F8081882308
:104D800049F0DE01AB51BF4FFE01EB51FF4F808177
:104D900081508C9380E060E00E94D517AE014B50AB
:104DA0005F4FFE01EB51FF4F8081282F30E0C9019A
:104DB000880F991F820F931F880F991F880F991FC3
:104DC000820F931F840F951F0E94AA1780E061E055
:104DD0000E94D517FE01EB51FF4F8081882F90E094
:104DE0009C012F5F3F4FC901880F991F820F931FAE
:104DF000880F991F880F991F280F391FCE018B50DC
:104E00009F4F820F931F0E94AA1708C0FE01EC510A
:104E1000FF4FDE01AD51BF4F8C918083FE01EC51FD
:104E2000FF4F80818F3F09F408CFFE01EC51FF4F07
:104E30008081282F30E0CD5BDE4F39832883C35437
:104E4000D140CD5BDE4F88819981C354D1408330FE
:104E5000910509F47DC1CD5BDE4FA881B981C354B2
:104E6000D140A430B105A4F4CD5BDE4FE881F981D7
:104E7000C354D140E130F10501F1CD5BDE4F288113
:104E80003981C354D1402230310509F4C4C044C330
:104E9000CD5BDE4F88819981C354D1408430910528
:104EA00009F411C2CD5BDE4FA881B981C354D14052
:104EB000A530B10509F4A7C22FC30E942E19FE0127
:104EC000EE50FF4F8081882371F480E191E00E94D1
:104ED000AA1784EB90E00E94E108FE01EE50FF4F1C
:104EE00081E0808312C0FE01EE50FF4F808181304F
:104EF00061F48DE191E00E94AA1780E090E00E94A9
:104F0000E108FE01EE50FF4F1082FE01ED5BFF4F06
:104F100080E090E0AAEFB4E480839183A283B3831E
:104F20008E01015C1F4FFE01ED5BFF4F60817181BF
:104F30008281938120E030E04AEF54E40E941F0216
:104F4000DC01CB01F80180839183A283B383FE014E
:104F5000FF96608171818281938120E030E040E89A
:104F60005FE30E94250488232CF481E090E09EAF4B
:104F70008DAF46C0FE01FF96608171818281938171
:104F800020E03FEF4FE757E40E94C503181664F591
:104F9000FE01ED5BFF4F608171818281938120E092
:104FA00030E040E251E40E941F02DC01CB01BC0171
:104FB000CD010E944900DC01CB019EAF8DAF0FC037
:104FC00088EC90E09CAF8BAF8BAD9CAD0197F1F777
:104FD0009CAF8BAF8DAD9EAD01979EAF8DAF8DAD6C
:104FE0009EAD009769F798C2FE01FF9660817181BE
:104FF000828193810E944900DC01CB019EAF8DAF7D
:105000008DAD9EAD9AAF89AF89AD9AAD0197F1F79D
:105010009AAF89AF81C20E942E19FE01E051FF4F65
:105020008081882379F48AE291E00E94AA1781E0C6
:1050300060E041E00E944710FE01E051FF4F81E037
:10504000808313C0FE01E051FF4F8081813069F4FD
:1050500084E391E00E94AA1781E060E040E00E94B2
:105060004710FE01E051FF4F108280E090E0AAEF70
:10507000B4E48DAB9EABAFABB8AF6DA97EA98FA9E1
:1050800098AD20E030E04AEF54E40E941F02DC01BA
:10509000CB0189AB9AABABABBCAB69A97AA98BA9A5
:1050A0009CA920E030E040E85FE30E9425048823CB
:1050B0002CF481E090E098AB8FA73FC069A97AA952
:1050C0008BA99CA920E03FEF4FE757E40E94C5035E
:1050D00018164CF56DA97EA98FA998AD20E030E097
:1050E00040E251E40E941F02DC01CB01BC01CD0172
:1050F0000E944900DC01CB0198AB8FA70FC088EC60
:1051000090E09EA78DA78DA59EA50197F1F79EA77C
:105110008DA78FA598A9019798AB8FA78FA598A960
:10512000009769F7F9C169A97AA98BA99CA90E947E
:105130004900DC01CB0198AB8FA78FA598A99CA74C
:105140008BA78BA59CA50197F1F79CA78BA7E4C122
:105150000E942E19FE01EF50FF4F80818823F1F449
:105160008FE391E00E94AA1783E061E041E00E9492
:10517000E30E83E062E041E00E94E30E83E061E041
:1051800041E00E94471083E062E041E00E94471046
:10519000FE01EF50FF4F81E0808322C0FE01EF50FF
:1051A000FF4F80818130E1F486E491E00E94AA17EC
:1051B00083E061E041E00E94E30E83E062E041E0D1
:1051C0000E94E30E83E061E040E00E94471083E02C
:1051D00062E040E00E944710FE01EF50FF4F108256
:1051E00080E090E0AAEFB4E48FA398A7A9A7BAA79C
:1051F0006FA178A589A59AA520E030E04AEF54E494
:105200000E941F02DC01CB018BA39CA3ADA3BEA314
:105210006BA17CA18DA19EA120E030E040E85FE37E
:105220000E94250488232CF481E090E09AA389A3AE
:105230003FC06BA17CA18DA19EA120E03FEF4FE775
:1052400057E40E94C50318164CF56FA178A589A5EF
:105250009AA520E030E040E251E40E941F02DC0108
:10526000CB01BC01CD010E944900DC01CB019AA316
:1052700089A30FC088EC90E098A38F8F8F8D98A1A1
:105280000197F1F798A38F8F89A19AA101979AA30B
:1052900089A389A19AA1009769F73EC16BA17CA15E
:1052A0008DA19EA10E944900DC01CB019AA389A394
:1052B00089A19AA19E8F8D8F8D8D9E8D0197F1F77B
:1052C0009E8F8D8F29C1FE01ED50FF4F8081882375
:1052D00079F48EE491E00E94AA1783E063E041E054
:1052E0000E944710FE01ED50FF4F81E0808313C004
:1052F000FE01ED50FF4F8081813069F487E591E038
:105300000E94AA1783E063E040E00E944710FE017C
:10531000ED50FF4F108280E090E0AAE7B4E4898F5F
:105320009A8FAB8FBC8F698D7A8D8B8D9C8D20E091
:1053300030E04AEF54E40E941F02DC01CB018D8B68
:105340009E8BAF8BB88F6D897E898F89988D20E079
:1053500030E040E85FE30E94250488232CF481E0DC
:1053600090E09C8B8B8B3FC06D897E898F89988D57
:1053700020E03FEF4FE757E40E94C50318164CF5B5
:10538000698D7A8D8B8D9C8D20E030E040E251E478
:105390000E941F02DC01CB01BC01CD010E9449002B
:1053A000DC01CB019C8B8B8B0FC088EC90E09A8B3F
:1053B000898B89899A890197F1F79A8B898B8B89D7
:1053C0009C8901979C8B8B8B8B899C89009769F7B3
:1053D00014C06D897E898F89988D0E944900DC01F7
:1053E000CB019C8B8B8B8B899C89988B8F878F852E
:1053F00098890197F1F7988B8F8783E063E040E00D
:105400000E94471089C00E942E1981E691E00E94F7
:10541000AA1782E00E94CA19FE01EF51FF4F808354
:10542000FE01EF51FF4F8081882F90E0880F991F78
:105430000E946F1880E090E0AAEFB4E48B879C870D
:10544000AD87BE876B857C858D859E8520E030E0AD
:105450004AEF54E40E941F02DC01CB018F8398873E
:10546000A987BA876F81788589859A8520E030E0A1
:1054700040E85FE30E94250488232CF481E090E05B
:105480009E838D833FC06F81788589859A8520E0D2
:105490003FEF4FE757E40E94C50318164CF56B85A4
:1054A0007C858D859E8520E030E040E251E40E94BD
:1054B0001F02DC01CB01BC01CD010E944900DC01CF
:1054C000CB019E838D830FC088EC90E09C838B83FF
:1054D0008B819C810197F1F79C838B838D819E81C9
:1054E00001979E838D838D819E81009769F714C0FB
:1054F0006F81788589859A850E944900DC01CB01FE
:105500009E838D838D819E819A83898389819A81EF
:105510000197F1F79A8389830E942E1980E060E059
:105520000E94D51780E791E00E94AA1780E061E011
:105530000E94D5178FE791E00E94AA17FE01EE5155
:10554000FF4F8FEF808311C0FE01E251FF4F1082A9
:105550001EC0FE01EE51FF4F8081823031F4FE010A
:10556000E251FF4F82E0808312C0FE01EE51FF4FF7
:105570008FEF80830E94C60BFE01EE51FF4F8083A8
:10558000FE01EE51FF4F80818130F1F2E2CFFE014A
:10559000E251FF4F8081882311F00C94931E9E01ED
:1055A00024513F4FCA59DE4F39832883C656D14014
:1055B000CA59DE4FA881B981C656D1401C92FE015E
:1055C000E251FF4F8081813041F481E0CA59DE4FC2
:1055D000E881F981C656D1408083FE01E451FF4F36
:1055E0008081882311F00C94761E0C94A31DDF9308
:1055F000CF930F92CDB7DEB78091FC029091FD0260
:1056000001969093FD028093FC028091FC029091A0
:10561000FD0282339105A0F083E00E94CA198983BC
:105620008981853028F483E060E00E944A0A04C042
:1056300083E060E00E945C0A1092FD021092FC027E
:105640000F90CF91DF910895AA1BBB1B51E107C0BA
:10565000AA1FBB1FA617B70710F0A61BB70B881F02
:10566000991F5A95A9F780959095BC01CD01089591
:105670002F923F924F925F926F927F928F929F9262
:10568000AF92BF92CF92DF92EF92FF920F931F9350
:10569000CF93DF93CDB7DEB7CA1BDB0B0FB6F89401
:1056A000DEBF0FBECDBF09942A88398848885F8441
:1056B0006E847D848C849B84AA84B984C884DF80B2
:1056C000EE80FD800C811B81AA81B981CE0FD11D96
:1056D0000FB6F894DEBF0FBECDBFED010895E1997E
:1056E000FECF9FBB8EBBE09A99278DB30895262FDE
:1056F000E199FECF9FBB8EBB2DBB0FB6F894E29A0B
:0C570000E19A0FBE01960895F894FFCFC7
:10570C0057656C636F6D6520546F20536D617274B7
:10571C00202020202020486F6D650053656C656348
:10572C0074205573657200312E75736572310032B9
:10573C002E7573657232004E657720757365722114
:10574C0000456E7465722070617373776F72643A82
:10575C00002A0050617373776F7264206973207331
:10576C0065740053595354454D204C4F434B45449D
:10577C000057524F4E472050415353574F524400FD
:10578C0052656D61696E696E6720747269616C73C4
:10579C000057656C636F6D652055736572310053EE
:1057AC00656C6563742066756E6374696F6E3A0020
:1057BC00646F6F72206F70656E696E6700646F6FD7
:1057CC007220636C6F73696E67004C6967687473E1
:1057DC00206F6E004C6967687473206F6666006694
:1057EC00616E206F6E0066616E206F6666004D758F
:1057FC00736963206F6E004D75736963206F666605
:10580C000054656D7065726174757265203A200084
:10581C00312E20557365722073656C65637400328C
:10582C002E204D6F64652073656C65637400312E9A
:10583C00446F6F7200000000000000322E4C69674C
:10584C006874730000000000332E46616E00000087
:10585C000000000000342E4D7573696300000000D9
:10586C000000352E54656D7072656174757265003B
:10587C00000000000000000000010202030303030B
:10588C0004040404040404040505050505050505C4
:10589C0005050505050505050606060606060606A4
:1058AC00060606060606060606060606060606068C
:1058BC000606060606060606070707070707070774
:1058CC00070707070707070707070707070707075C
:1058DC00070707070707070707070707070707074C
:1058EC00070707070707070707070707070707073C
:1058FC000707070707070707080808080808080824
:10590C00080808080808080808080808080808080B
:10591C0008080808080808080808080808080808FB
:10592C0008080808080808080808080808080808EB
:10593C0008080808080808080808080808080808DB
:10594C0008080808080808080808080808080808CB
:10595C0008080808080808080808080808080808BB
:10596C0008080808080808080808080808080808AB
:10597C000808080808080808FE60DAF266B6BEE0F7
:10598C00FEF607080961040506480102032D7400A0
:02599C00732B6B
:00000001FF
